:020000040800F2
:10000000988C0020F1020008610800081908000817
:100010005D08000839070008C30D00080000000053
:100020000000000000000000000000003102000895
:100030003D070008000000008D0200082D0B00089D
:100040000B0300080B0300080B0300080B03000858
:100050000B0300080B0300080B0300080B03000848
:100060000B0300080B0300080B0300080B03000838
:100070000B0300080B0300080B0300080B03000828
:100080000B0300080B0300080B0300080B03000818
:100090000B0300080B0300080B0300080B03000808
:1000A0000B0300080B0300080B0300080B030008F8
:1000B0000B0300080B0300080B0300080B030008E8
:1000C0000B0300080B0300080B0300080B030008D8
:1000D0000B030008A50B00080B0300080B03000826
:1000E0000B0300080B0300080B0300080B030008B8
:1000F0000B0300080B0300080B0300080B030008A8
:100100000B0300080B0300080B0300080B03000897
:100110000B0300080B0300080B0300080B03000887
:100120000B0300080B0300080B0300080B03000877
:100130000B0300080B0300080B0300080B03000867
:100140000B0300080B0300080B0300080B03000857
:100150000B0300080B0300080B0300080B03000847
:100160000B0300080B0300080B0300080B03000837
:100170000B0300080B0300080B0300080B03000827
:100180000B0300080B03000800F002F800F041F830
:100190000AA090E8000C82448344AAF10107DA45E2
:1001A00001D100F036F8AFF2090EBAE80F0013F0F3
:1001B000010F18BFFB1A43F001031847B0280000D5
:1001C000D0280000103A24BF78C878C1FAD8520766
:1001D00024BF30C830C144BF04680C6070470000C1
:1001E0000023002400250026103A28BF78C1FBD840
:1001F000520728BF30C148BF0B607047642900F028
:10020000D980002070471FB502F02AFC1FBD10B531
:1002100010BD00F05FFA1146FFF7F5FF00F006FE93
:1002200000F07DFA03B4FFF7F2FF03BC00F0CBFD52
:100230002C4B19680868B0E8F04F80F30988BFF3C9
:100240006F8F4FF0000080F31188704700000000AE
:1002500008480068006880F308884FF0000080F3C9
:10026000148862B661B6BFF34F8FBFF36F8F00DFA4
:1002700000BF00BF08ED00E0DFF80C00016841F4AA
:1002800070010160704700BF88ED00E0EFF3098066
:10029000BFF36F8F134B1A681EF0100F08BF20EDCD
:1002A000108A20E9F04F106009B44FF0500080F33D
:1002B0001188BFF34F8FBFF36F8F01F02BFE4FF00C
:1002C000000080F3118809BC19680868B0E8F04F95
:1002D0001EF0100F08BFB0EC108A80F30988BFF33E
:1002E0006F8F70476C000020EFF3058070470000AF
:1002F0000948804709480047FEE7FEE7FEE7FEE7BA
:10030000FEE7FEE7FEE7FEE7FEE7FEE704480549F5
:10031000054A064B704700003D0B000889010008A4
:1003200098860020988C00209888002098880020CB
:10033000704700000FB4044910B503AA029800F0FA
:1003400047F910BC5DF814FB540000202DE9F04182
:100350000E460446002020622046E168884730B3FC
:10036000252805D0D4E901219047206A401CF2E7F6
:10037000E168204600278847050018D0A5F1410014
:10038000192802D820354FF4006732462946204606
:100390002760FFF733FF40B1012804D0F61D26F097
:1003A00007060836D8E7361DD6E72846DAE7206A7A
:1003B000BDE8F0812DE9F04106460024106875295A
:1003C000314616A510D0AFF30080002802DA404273
:1003D00013A507E031688A0701D512A502E0490795
:1003E00004D511A5012401E0AFF3008000210A2209
:1003F00006F1240709E0B0FBF2FCB0FBF2F302FBCC
:100400001C00303078541846491C0028F3D123468C
:100410002A463046BDE8F04100F080B800000000F8
:100420002D0000002B00000020000000032A40F2F5
:10043000308010F0030C00F0158011F8013BBCF186
:10044000020F624498BF11F801CB00F8013B38BF9E
:1004500011F8013BA2F1040298BF00F801CB38BFAC
:1004600000F8013B11F0030300F0C480083AC0F02B
:10047000088051F8043B083A51F804CBA0E8081072
:10048000F5E7121D5CBF51F8043B40F8043BAFF3A5
:100490000080D20724BF11F8013B11F801CB48BFFF
:1004A00011F8012B24BF00F8013B00F801CB48BF35
:1004B00000F8012B704702F0FF0343EA032242EAEF
:1004C000024200F0CBB84FF0000200B5134694464C
:1004D0009646203922BFA0E80C50A0E80C50B1F19C
:1004E0002001BFF4F7AF090728BFA0E80C5048BFB0
:1004F0000CC05DF804EB890028BF40F8042B08BF4E
:10050000704748BF20F8022B11F0804F18BF00F849
:10051000012B704770477047704770472DE9F047CF
:100520000D4699469246044600F124080168880663
:1005300004D5E06921F01001216000E00120A8420B
:1005400001DD471B00E00027A1697A1902EB0900D1
:10055000081AA0612078C00602D42046AFF30080BC
:10056000002608E0D4E901211AF806009047206A25
:10057000401C761C20624E45F4DB2078C0060AD56C
:100580002046AFF3008006E0D4E9012130209047F7
:10059000206A401C2062381EA7F10107F4DC07E046
:1005A000D4E9012118F805009047206A401C206218
:1005B000281EA5F10105F3DC2046AFF3008020786A
:1005C000000602D50220BDE8F0870120FBE700000D
:1005D000074B70B50D467B4400F065F8044628468D
:1005E00000F074F810B14FF0FF3070BD204670BDC0
:1005F0003708000010B5203AC0F00B80B1E8185061
:10060000203AA0E81850B1E81850A0E81850BFF4FC
:10061000F5AF5FEA027C24BFB1E81850A0E818509B
:1006200044BF18C918C0BDE810405FEA827C24BFEF
:1006300051F8043B40F8043B08BF7047D20728BF7D
:1006400031F8023B48BF11F8012B28BF20F8023BCC
:1006500048BF00F8012B70474FF000020429C0F09A
:10066000128010F0030C3FF430AFCCF1040CBCF15D
:10067000020F18BF00F8012BA8BF20F8022BA1EB36
:100680000C01FFF722BF5FEAC17C24BF00F8012BF9
:1006900000F8012B48BF00F8012B704701694A1C84
:1006A00002610878704700B58FB0CDE901310021B3
:1006B000059105497944CDE9031011466846FFF7D5
:1006C00045FE0FB000BD0000E5FFFFFF007B00F01E
:1006D00080007047754600F02BF8AE46050069466D
:1006E000534620F00700854618B020B5FFF70EFEF0
:1006F000BDE820404FF000064FF000074FF0000823
:100700004FF0000B21F00701AC46ACE8C009ACE8A3
:10071000C009ACE8C009ACE8C0098D46704710B507
:100720000446AFF300802046BDE81040FFF77ABDD5
:10073000004870473486002000BFFEE77047F0B5E0
:100740000A4600210023002400BF3DE0012505FAF0
:1007500001F3156805EA03049C4234D105684F0093
:100760000326BE40B543056015794E00B5400668C6
:10077000354305601579012D02D01579022D16D16A
:1007800085684F000326BE40B543856055794E000D
:10079000B540866835438560456801268E40B5437F
:1007A0004560456896798E40B6B235434560C56868
:1007B0004F000326BE40B543C560D5794E00B54015
:1007C000C6683543C560491C1029BFD3F0BDF0B5DC
:1007D000002300244D07ED0E02FA05F3CE1000F1C0
:1007E000200555F826504E07F70E0F26BE40B5439C
:1007F000CF1000F1200646F82750CE1000F120055A
:1008000055F8265045EA0304CE1000F1200545F8BE
:100810002640F0BD0183704700BFFEE71CB50121F3
:10082000202000F065F84FF4C060009001208DF8A2
:10083000040000208DF8060003208DF8050001203B
:100840008DF8070069460448FFF779FF4FF4C0614F
:100850000148FFF7DFFF1CBD0014024000BFFEE7A8
:100860007047000070B5002100230F22C4781CB32C
:10087000174C246804F4E064C4F5E064C4F3072171
:10088000C1F10404E3B20A4144789C40E1B28478A7
:10089000144021430C07210E0E4C05786155047855
:1008A00004F01F050124AC4005786D11AD0005F181
:1008B000E025C5F8004109E0047804F01F05012493
:1008C000AC40054D0678761145F8264070BD000015
:1008D0000CED00E000E400E080E100E002490143AB
:1008E000024A1160704700000000FA050CED00E0BC
:1008F00029B1064A12680243044B1A6004E0034A15
:1009000012688243014B1A60704700003038024081
:1009100029B1064A12680243044B1A6004E0034AF4
:1009200012688243014B1A6070470000443802404D
:10093000F0B5002100220024022500260223324FB8
:100940003F6807F00C0121B1042905D0082937D1EF
:1009500005E02E4F076036E02D4F076033E02A4F49
:100960003F1F3F68C7F38056274F3F1F3F6807F080
:100970003F036EB1264FB7FBF3F7DFF88CC0ACF145
:10098000040CDCF800C0CCF3881C07FB0CF40CE072
:100990001E4FB7FBF3F7DFF870C0ACF1040CDCF8C6
:1009A00000C0CCF3881C07FB0CF4174F3F1F3F68B7
:1009B000C7F301477F1C7D00B4FBF5F7076002E039
:1009C000124F076000BF00BF0F4F3F6807F0F001F4
:1009D0000909104F7A5C0768D74047600A4F3F68A3
:1009E00007F4E051890A0B4F7A5C4768D74087606B
:1009F000054F3F6807F46041490B064F7A5C476832
:100A0000D740C760F0BD0000083802400024F40061
:100A100000127A005A0000200CB5002001900090CE
:100A20003448006840F480303249086000BF3148E3
:100A3000006800F4003000900198401C019000987C
:100A400018B90198B0F5A04FF1D12A48006800F418
:100A5000003010B10120009001E0002000900098CB
:100A6000012846D123484030006840F08050214999
:100A7000403108602048006840F440401E4908604A
:100A80001C48083000681B490831086008460068A7
:100A900040F4004008600846006840F4A050086038
:100AA0001648091F0860081F006840F08070091F81
:100AB000086000BF0F48006800F000700028F9D0FF
:100AC00040F205700E4908600A480830006820F0BE
:100AD00003000849083108600846006840F0020039
:100AE000086000BF03480830006800F00C000828C8
:100AF000F8D10CBD00380240007000400854400797
:100B0000003C0240042808D14FF0E021096941F07F
:100B100004014FF0E022116107E04FF0E021096984
:100B200021F004014FF0E0221161704710B501F08F
:100B30001BFD012801D001F0E7FA10BD10B51548E2
:100B4000006840F47000134908601348006840F0E2
:100B500001001149086000200F49083108600E4863
:100B600000680E4908400C4908600D48091D0860DE
:100B7000081F006820F48020091F08600020064933
:100B80000C310860FFF748FF4FF0006001498039E1
:100B9000086010BD88ED00E000380240FFFFF6FE5F
:100BA0001030002410B540F225511D4800F04AF8DD
:100BB00010B31B4800F000F9C4B21A48008800F4D2
:100BC0000040C8B91748008800F4804060B10A2C82
:100BD00003D000201349088020E01248008840F428
:100BE00000401049088019E00D2C06D10D480088FE
:100BF00040F480400B49088010E00A480088C0F3A8
:100C00000D0009490C5407480088401C054908801C
:100C100008460088C72801DD0020088010BD0000BC
:100C200000100140580000207483002021B1828907
:100C300042F40052828104E082894DF6FF731A402B
:100C40008281704770B502460024002300250020F1
:100C500040F66A16B14200D100BFC1F3421501F05F
:100C60001F03012606FA03F3012D02D196893340B2
:100C700006E0022D02D1168A334001E0968A334005
:100C80000C12012606FA04F41688344013B10CB194
:100C9000012000E0002070BDF0B5034600240026CE
:100CA0000025002040F66A17B94200D100BF18465F
:100CB000C1F3421401F01F06012707FA06F5012CC3
:100CC00001D10C3004E0022C01D1103000E01430CE
:100CD0001AB107682F43076002E00768AF43076057
:100CE000F0BD00002DE9FF4705460E460024A14651
:100CF00000BFA046B08900B100BF2C8A24F4405444
:100D0000F08804432C82AC8941F20C608443B088A3
:100D100031890843718908430443AC81AC8A24F4C7
:100D20004074B0890443AC826846FFF701FE204856
:100D3000854202D01F48854202D1DDF80C9001E0C7
:100D4000DDF80890A88900F4004040B109EBC90023
:100D500000EB091031684900B0FBF1F707E009EB3F
:100D6000C90000EB091031688900B0FBF1F764207D
:100D7000B7FBF0F004012009642101FB1078A88979
:100D800000F4004040B1322000EBC800B0FBF1F0AD
:100D900000F00700044308E0322000EB0810642153
:100DA000B0FBF1F000F00F0004432C81BDE8FF8799
:100DB000001001400014014001468888C0F308007B
:100DC000704700BFFEE7014600BF704770B504469C
:100DD0000420FFF797FE0C48047025464FF47A7004
:100DE00045430120094908804FF0E020006940F0A8
:100DF00002004FF0E021086108464561006940F0BB
:100E00000100086170BD0000500000205200002069
:100E100000BF054A128802F04002002AF9D0C2B28F
:100E2000014B9A8070470000001001400EB54FF44E
:100E30004070FFF753FDA820FFF7C8FF4FF4E130E3
:100E400000F038FDFFF7EAFC0848094901220023B9
:100E5000CDE90021029078220649074801F026FBDF
:100E60000649086000F0EEFF00200EBD10000020D3
:100E7000EC00002000000020A51700080C00002056
:100E80002DE9F04105460E462648076826480068C9
:100E9000001D00F065FD50B92348006890F82C1043
:100EA0000120884021490968814320480160681C6D
:100EB000D8B9D6B11E4948681B49096888601A49E3
:100EC00082680968CA6018490968091D826851600A
:100ED00015490968091D8160154A134909684A6165
:100EE00011460968491C11601AE07C190E48006817
:100EF0004460BC4207D20C480168091D0D480068D7
:100F000000F06AFD0CE008480168091D0A48006805
:100F100000F062FD09480068844201D2074804607D
:100F2000BDE8F081800000206C00002084000020DB
:100F30003085002074000020700000209C000020FC
:100F400010B5044600F06EFD31480068401C304981
:100F500008603048006840B92E48046008460068C0
:100F600001280DD100F0ACF90AE02B48006838B92F
:100F700028480068C06AE16A884201D825480460B0
:100F800026480068401C254908600846006820641F
:100F900094F82C1001208840214909680843204911
:100FA0000860E16A01EB81011E4A02EB8101486899
:100FB000A0608268E260211D826851608160E16A00
:100FC00001EB8101174A02EB81026261E16A01EBE8
:100FD0008101144A52F82110491CE26A02EB820294
:100FE000104B43F8221000F047FD0B48006868B131
:100FF00008480068C06AE16A884207D24FF0805012
:1010000009490860BFF34F8FBFF36F8F10BD000019
:101010007C0000206C000020880000209800002048
:10102000840000207C84002004ED00E008B500F07E
:10103000F9FC12480068E8B9114800F0BDFC1148FD
:1010400000F0BAFC0E48104908600E480F490860CD
:1010500000200F4B0F4A0C2100900A2001F06EF87F
:10106000064908600846006820B10BA103480068E3
:1010700000F086FD00F000FD08BD0000B400002077
:101080004485002058850020AC000020B0000020DE
:101090006C850020BC850020546D7251000000005A
:1010A00010B516E000F0BEFC0C48C068C468201DF6
:1010B00000F056FC0A480068401E094908600948CB
:1010C0000068401E0749086000F0D6FC204600F08A
:1010D00020F8044800680028E4D110BD1C850020D9
:1010E0007C0000207800002070B504460D46206C7E
:1010F00070B1216CE0680144E160D4E902108842DB
:1011000001D32168E1602846226CE168FFF78EF97F
:1011100070BD10B5044694F8550030B9206B00F04E
:10112000C9FC204600F0C6FC1AE094F855000128DE
:1011300003D1204600F0BEFC12E094F855000228CE
:1011400001D1012000E0002050B900BF502080F301
:101150001188BFF34F8FBFF36F8F00BF00BFFEE753
:1011600010BD00000146084A126812680AB901223F
:1011700000E000220A600A6822B9034A1268D268B5
:10118000106800E000207047AC00002000BFFFF7AF
:1011900087FF064800680128F9D94FF080500449BC
:1011A0000860BFF34F8FBFF36F8FF0E77C840020A0
:1011B00004ED00E02DE9F04106460D46174698463D
:1011C000069C0DB9246000E02760E66325640121D8
:1011D000204601F001F884F84C80BDE8F0812DE94B
:1011E000F05F82460F4690469B460A9E0C9C4FEA53
:1011F0008801A522206BFFF75EF9A8F10100216BA1
:1012000001EB800929F0070909F0070008B901205E
:1012100000E0002050B900BF502080F31188BFF3D8
:101220004F8FBFF36F8F00BF00BFFEE787B1002570
:1012300007E0795D04F134004155785D00B902E0C2
:101240006D1C0A2DF5D300BF00213D20015502E0A1
:10125000002084F83400052E01D2012000E0002097
:1012600050B900BF502080F31188BFF34F8FBFF3F8
:101270006F8F00BF00BFFEE7052E00D30426E66295
:10128000A6640020E064201D00F0A3FB04F1180018
:1012900000F09FFB2461C6F10500A061646200209C
:1012A000206584F854005A465146484600F064FAD6
:1012B00020600B9808B10B980460BDE8F09F000017
:1012C00010B5002407E004EB84010F4A02EB810013
:1012D00000F072FB641C052CF5D30C4800F06CFB8D
:1012E0000B4800F069FB0B4800F066FB0A4800F071
:1012F00063FB0A4800F060FB0448094908600448A1
:101300000849086010BD00007C840020E0840020B3
:10131000F4840020088500201C85002030850020F2
:10132000700000207400002010B50146164800E04F
:10133000006803688B42FBD30246436813448B4228
:1013400004D143684C682344436001460A464B6815
:1013500013440468A34211D10C4C03682468A342CF
:1013600008D04B680468646823444B6003681B68BA
:101370000B6005E0054B1B680B6001E003680B6028
:10138000884200D0016010BDCC000020D4000020B5
:101390002DE9F04104460D4616461F464FF0000861
:1013A00065602461B5420CD8F01BA169884202D364
:1013B0004FF0010811E0211D0948006800F00CFB06
:1013C0000BE0BE4204D2BD4202D34FF0010804E05C
:1013D000211D0448006800F0FFFA4046BDE8F08196
:1013E000B0000020AC00002070B5054600F01AFBEC
:1013F000A86B08B9012400E0002400F03DFB204662
:1014000070BD000070B505460E460E480068C06805
:10141000C468201D00F0A4FA94F8280000F004002D
:1014200028B132462946204600F0D6F805E094F867
:10143000280000F0FE0084F828002046216A884732
:1014400070BD0000AC0000207FB57FE0019800284F
:101450007CDB039C606908B9012000E0002010B922
:10146000201D00F07DFA684600F0E2F8054601987C
:101470000A2869D2DFE800F06805072E365806080A
:101480002F3700BF00BF00BF94F8280040F00100D4
:1014900084F828000298A269811803462A4620464B
:1014A000FFF776FFA8B194F8280000F0040038B1E7
:1014B0000298A26981182A46204600F08DF805E0BE
:1014C00094F8280000F0FE0084F828002046216AE5
:1014D00088473AE000BF94F8280000F0FE0084F846
:1014E000280032E000BF94F8280040F0010084F8A2
:1014F00028000298A061A06908B1012000E0002046
:1015000050B900BF502080F31188BFF34F8FBFF355
:101510006F8F00BF00BFFEE7A06941192B462A4626
:101520002046FFF735FF10E094F8280000F0020095
:1015300018B9204600F0BEFA05E094F8280000F043
:10154000FE0084F8280000E000BF00BF002201A9CF
:101550000348006800F0AEFE00287FF477AF7FBD3F
:10156000B4000020F8B505460C4600F0CBFC6846F8
:1015700000F05EF80646009820BB44B9B54206D894
:1015800001F076F931462846FFF73CFF1CE03CB1FC
:101590000E480068006808B9012000E000200446F9
:1015A000A91B22460A48006800F01AFB01F060F906
:1015B00050B94FF0805007490860BFF34F8FBFF319
:1015C0006F8F01E001F054F9F8BD0000B000002079
:1015D000B400002004ED00E070B504460D46164648
:1015E00004E0A06905442046216A8847A0694119A2
:1015F0002B4632462046FFF7CBFE0028F1D170BDC6
:1016000009480068006808B9012000E0002020B106
:101610004FF0FF300549086005E003480068C068E6
:101620000068024908607047700000209C0000209C
:1016300070B5044600F0A8FF0546074800688542DB
:1016400004D200F00BF80120206001E000202060AF
:1016500001480560284670BDBC00002070B508E058
:101660000D480068C06804684FF0FF312046FFF75E
:10167000C9FE09480068006808B9012000E00020A0
:101680000028EDD004480568044800680249086055
:101690000248056070BD0000AC000020B0000020D2
:1016A0000E480068401C08B9012000E0002050B935
:1016B00000BF502080F31188BFF34F8FBFF36F8FAF
:1016C00000BF00BFFEE700BF502080F31188BFF3CA
:1016D0004F8FBFF36F8F00BF00BFFEE7C000002039
:1016E00008B500BF6846FFF73DFD04462046009957
:1016F000FFF738FFFFF7A8FEF4E770B5044600F0E7
:1017000091F994F9455010E0606A08B9012000E0B1
:10171000002038B904F1240001F01AF818B100F0E3
:101720003DFB00E003E0681E45B2002DECDC00BF8D
:10173000FF2084F8450000F09FF900F073F994F958
:10174000445010E0206908B9012000E0002048B9A9
:1017500004F1100000F0FCFF08B100F01FFB681E50
:1017600045B200E001E0002DECDC00BFFF2084F872
:10177000440000F081F970BD001F4FF080730360DA
:10178000001F21F001030360001F054B03601438A4
:101790000260001F6FF002030360203870470000F2
:1017A000A11600083EB50446104811490222002344
:1017B000CDE90021029078220E490F4800F076FE14
:1017C0000E4908600E480F4903220023CDE900218D
:1017D000029078220C490D4800F068FE0C49086020
:1017E0000C48006800F050FA3EBD000024000020C4
:1017F0002C2A0020140000201918000820000020C6
:10180000380000206C530020280000206D180008CC
:10181000340000200C000020002400BF641C21467E
:101820000BA0FEF787FD052C06D10D48006818B106
:101830000B48006800F028FA0A480068C0430A49CB
:10184000C1F8A4024FF4FA7000F0F0F9E6E70000E6
:101850007461736B315F6E756D203D25640A000005
:1018600034000020A482424200804242002400BF93
:10187000641C214609A0FEF75DFD01200B490860AC
:101880004FF4FA7000F0D2F900200949C1F8A8021B
:101890004FF4FA6000F0CAF9EAE700007461736B74
:1018A000325F6E756D203D25640A0000A8824242B9
:1018B0000080424210B588B0044601210846FFF777
:1018C00017F801211020FFF723F8072209212248E9
:1018D000FEF77DFF07220A211F48FEF778FF4FF42D
:1018E000C060069002208DF81C008DF81D000020BD
:1018F0008DF81E0001208DF81F0006A91648FEF77E
:101900001EFF02940020ADF80C00ADF80E00ADF8FB
:101910001000ADF814000C20ADF8120002A90F4819
:10192000FFF7E0F901210D48FFF780F9012240F2AD
:1019300025510A48FFF7B0F925208DF8040003204F
:101940008DF805008DF8060001208DF8070001A82C
:10195000FEF788FF08B010BD0000024000100140F3
:1019600001460A69D1E901309860D1E90103586064
:101970005068884201D18868506000200861106872
:10198000401E106010687047034B0360034B0B60F0
:101990008223136070470000B47E0020AC7C0020DE
:1019A000034B0360034B0B604FF48273136070476B
:1019B0001C8300200C7F002000F1080141604FF0E3
:1019C000FF31816000F10801C16001610021016007
:1019D000704700210161704710B502460B685C1C1E
:1019E0000CB9106907E002F1080000E040684468A3
:1019F00024689C42FAD944684C604C68A1608860B5
:101A000041600A611468641C146010BD42684A6039
:101A100093688B60936859609160086103685B1CF0
:101A20000360704700BF502080F31188BFF34F8FD1
:101A3000BFF36F8F00BF0E480068401C0C49086060
:101A400008460068012812D10A480068C0B208B9E7
:101A5000012000E0002050B900BF502080F3118821
:101A6000BFF34F8FBFF36F8F00BF00BFFEE770471C
:101A7000C000002004ED00E00D48006850B900BF30
:101A8000502080F31188BFF34F8FBFF36F8F00BFDB
:101A900000BFFEE706480068401E0549086008468A
:101AA000006820B9002080F3118800BF00BF704794
:101AB000C000002070B506463546002E44D0083DD3
:101AC0002C46224960680968084008B1012000E0FE
:101AD000002050B900BF502080F31188BFF34F8F12
:101AE000BFF36F8F00BF00BFFEE7206808B9012079
:101AF00000E0002050B900BF502080F31188BFF3F0
:101B00004F8FBFF36F8F00BF00BFFEE70F496068C4
:101B100009680840C0B12068B0B90C49606809681C
:101B20008843606000F0EEF909496068096808447C
:101B3000074908602046FFF7F7FB06480068401C8D
:101B40000449086000F094FE70BD0000E800002029
:101B5000D8000020E400002000204FF0E0210861C0
:101B60008861064800684FF47A71B0FBF1F0401EBE
:101B70004FF0E02148610720086170473C000020D9
:101B800030B502460B46002152B900BF502484F301
:101B90001188BFF34F8FBFF36F8F00BF00BFFEE709
:101BA000BBB1002012E00D4C04EBC0046468944209
:101BB00003D10A4C04EBC0010AE031B9074C54F8D8
:101BC000304014B9054C04EBC001401C0828EAD38E
:101BD00000BF09B10B604A6030BD00003C840020AA
:101BE0002DE9F04105460E4617462C46FFF71AFF31
:101BF00094F94400401C10B9002084F8440094F982
:101C00004500401C10B9002084F84500FFF734FF60
:101C1000A06B28B93A46314604F1240000F0E0F800
:101C20002046FFF76AFDBDE8F081000070B504466C
:101C30000025D4B11248006808B9012000E0002056
:101C400050B900BF502080F31188BFF34F8FBFF30E
:101C50006F8F00BF00BFFEE700F054F9002120465F
:101C6000FFF70EF900F004FE05463DB94FF0805035
:101C700004490860BFF34F8FBFF36F8F70BD000042
:101C8000A800002004ED00E070B50546FFF7CAFE8D
:101C900015B93248006800E028460446201DFFF7C9
:101CA0005FFE78B9E06A00EB80002D4951F8200012
:101CB00040B994F82C10012088402A4909688143D2
:101CC00028480160A06A18B104F11800FFF748FE27
:101CD00025480068401C2449086020480068844268
:101CE00009D1211D2148FFF791FE21480068401CC1
:101CF0001F49086006E01F480068401E1D49086033
:101D0000FFF77EFCFFF7B8FE14480068844202D05B
:101D10002046FFF7FEF918480068E8B10F48006850
:101D2000844219D11548006808B9012000E000205C
:101D300050B900BF502080F31188BFF34F8FBFF31D
:101D40006F8F00BF00BFFEE74FF080500C49086066
:101D5000BFF34F8FBFF36F8F70BD00006C0000208A
:101D60007C84002084000020980000201C85002036
:101D7000780000207C00002088000020A8000020BF
:101D800004ED00E003490968016003490968416006
:101D900070470000940000208000002001200149CD
:101DA000086070479000002070B504460D4654B995
:101DB00000BF502080F31188BFF34F8FBFF36F8FA8
:101DC00000BF00BFFEE70548016818312046FFF755
:101DD00003FE01212846FFF753F870BD6C00002078
:101DE00070B504460E46154654B900BF502080F326
:101DF0001188BFF34F8FBFF36F8F00BF00BFFEE7A7
:101E000060680F490968C8610D49826809680A62FB
:101E10000B4909681831826851600949096818310D
:101E20008160074909688C622168491C21600DB1F5
:101E30004FF0FF3629463046FFF722F870BD00000C
:101E40006C00002010B586B000200590049003AA15
:101E500004A905A8FFF798FD0022DDE90410134648
:101E6000CDE9002102901FA12048039A00F01EFB3B
:101E70001F4908600846006808B1012400E00024FA
:101E8000012C02D100F0B0FD0446012C15D100BF99
:101E9000502080F31188BFF34F8FBFF36F8F00BFC7
:101EA0004FF0FF30134908600120134908600020FB
:101EB0001249086000F074F810E0601C08B10120BD
:101EC00000E0002050B900BF502080F31188BFF31C
:101ED0004F8FBFF36F8F00BF00BFFEE70848006859
:101EE00006B010BD49444C45000000008D110008AB
:101EF000A00000209C00002088000020800000201E
:101F0000A400002002480068401C01490860704796
:101F1000A80000201D48006818B101201C49086075
:101F200032E000201A4908601A480068B0FA80F0D0
:101F3000C0F11F0101EB8100174A52F8200008B1DF
:101F4000012000E0002050B900BF502080F311882C
:101F5000BFF34F8FBFF36F8F00BF00BFFEE701EBF2
:101F600081020D4B03EB820042685268426000F12F
:101F700008024368934202D1426852684260426854
:101F8000D268064B1A6000BF70470000A80000200E
:101F900090000020840000207C8400206C00002041
:101FA0001CB5524800685249884201D0012000E027
:101FB000002050B900BF502080F31188BFF34F8F2D
:101FC000BFF36F8F00BF00BFFEE748480068484975
:101FD000491E884201D0012000E0002050B900BF16
:101FE000502080F31188BFF34F8FBFF36F8F00BF76
:101FF00000BFFEE73F49084600780190FF200A46EF
:1020000010700846007800909DF8000000F0F00085
:102010009DF80020904201D1012000E0002050B93D
:1020200000BF502080F31188BFF34F8FBFF36F8F35
:1020300000BF00BFFEE79DF8000000F050002E4AF0
:10204000107007202D4A106009E02C480068401EDF
:102050002A4A10609DF800004006000E00909DF88E
:10206000000000F080008028EFD024480068C0F114
:102070000700042801D1012000E0002050B900BF72
:10208000502080F31188BFF34F8FBFF36F8F00BFD5
:1020900000BFFEE7194800680002184A10601046A9
:1020A000008800F4E0601060124A019810700F4838
:1020B0002030006840F470000C4920310860084668
:1020C000006840F070400860FFF746FD00200C49B2
:1020D0000860FEF7D1F80B48006840F0404009491D
:1020E0000860FEF7B5F800201CBD000000ED00E020
:1020F00071C20F4100E400E0C4000020C8000020CD
:10210000C000002034EF00E010B500BF502080F385
:102110001188BFF34F8FBFF36F8F00BF00F03AFA03
:1021200018B14FF080500449086000BF002080F3D0
:10213000118800BF10BD000004ED00E02DE9F84358
:1021400080460E4617461C46DDF82090002554B9FF
:1021500000BF502080F31188BFF34F8FBFF36F8F04
:1021600000BF00BFFEE7B8F1000F25D024B307B1D0
:1021700016B307B906BB502000900098502801D133
:10218000012000E0002050B900BF502080F31188EA
:10219000BFF34F8FBFF36F8F00BF00BFFEE700BFDD
:1021A0002546012085F846004B463A4631464046D2
:1021B0000095FEF7FFFF0BE055B900BF502080F3FC
:1021C0001188BFF34F8FBFF36F8F00BF00BFFEE7D3
:1021D0002846BDE8F88300002DE9F04105460E468B
:1021E00001272C4654B900BF502080F31188BFF35B
:1021F0004F8FBFF36F8F00BF00BFFEE7002C42D0B0
:10220000E06B00283FD04FF0FF31E06BB1FBF0F006
:10221000216C884237D3FFF705FCD4E90F12206800
:1022200001FB0200A0600020A06320686060E06BFA
:10223000401E226C216800FB0211E160FF2084F83F
:10224000440084F845009EB9206908B9012000E0E7
:102250000020A8B904F1100000F07AFA80B14FF024
:10226000805013490860BFF34F8FBFF36F8F07E0B3
:1022700004F11000FFF7A0FB04F12400FFF79CFB22
:10228000FFF7FAFB00E000270FB1012000E000207B
:1022900050B900BF502080F31188BFF34F8FBFF3B8
:1022A0006F8F00BF00BFFEE73846BDE8F081000039
:1022B00004ED00E02DE9F74183B005460E464FF0EE
:1022C00000082C4654B900BF502080F31188BFF39A
:1022D0004F8FBFF36F8F00BF00BFFEE70EB9206CBA
:1022E00008B9012000E0002050B900BF502080F361
:1022F0001188BFF34F8FBFF36F8F00BF00BFFEE7A2
:1023000000F032F908B9059808B9012000E0002072
:1023100050B900BF502080F31188BFF34F8FBFF337
:102320006F8F00BF00BFFEE700BFFFF77BFBA76B0F
:10233000F7B131462046FEF7D7FE781EA06320692C
:1023400008B9012000E0002060B904F1100000F09D
:10235000FFF938B14FF080502F490860BFF34F8F1D
:10236000BFF36F8FFFF788FB012006B0BDE8F08157
:10237000059818B9FFF780FB0020F6E7B8F1000FC9
:1023800004D101A8FFF7FEFC4FF00108FFF774FB32
:10239000FFF7B8FDFFF746FB94F94400401C10B965
:1023A000002084F8440094F94500401C10B9002036
:1023B00084F84500FFF760FB05A901A800F02EF89E
:1023C000F0B92046FFF710F8A0B104F124000599F8
:1023D000FFF7EAFC2046FFF790F900F049FA0028E1
:1023E000A3D14FF080500C490860BFF34F8FBFF36B
:1023F0006F8F9AE72046FFF780F900F039FA94E7EB
:102400002046FFF77AF900F033FA2046FEF7ECFF9A
:1024100000288AD00020A8E704ED00E070B505464A
:102420000C4655B900BF502080F31188BFF34F8F81
:10243000BFF36F8F00BF00BFFEE754B900BF50204D
:1024400080F31188BFF34F8FBFF36F8F00BF00BFC2
:10245000FEE7FFF7E7FA134802686868131A206876
:10246000401C08B9002619E00F492868096888420D
:1024700006D06868904203D80126002020600DE055
:102480002068984207D92068C01A20602846FFF7C4
:1024900079FC002602E0002020600126FFF7ECFA1C
:1024A000304670BD80000020940000202DE9F04FE0
:1024B00085B00746884691469A46DDE90EB6109CDF
:1024C0000EB1012000E0002050B900BF502080F381
:1024D0001188BFF34F8FBFF36F8F00BF00BFFEE7C0
:1024E0000CB1012000E0002050B900BF502080F363
:1024F0001188BFF34F8FBFF36F8F00BF00BFFEE7A0
:10250000582003900398582801D1012000E00020B2
:1025100050B900BF502080F31188BFF34F8FBFF335
:102520006F8F00BF00BFFEE700BFB4B1AEB125465C
:102530002C462E63022085F85500002004A953463E
:102540004A46CDE900B1CDE9025041463846FEF792
:1025500046FE2846FEF7F4FC01E0002004900498B3
:1025600005B0BDE8F08F00000549096809B90120F0
:1025700005E00449096809B9022000E0002070471D
:1025800088000020A800002001490868704700006A
:10259000800000202DE9F0414FF0000861480068FC
:1025A00000287DD160480068451C5F48056015BB68
:1025B0005E480068006808B9012000E0002050B9BA
:1025C00000BF502080F31188BFF34F8FBFF36F8F90
:1025D00000BF00BFFEE755480768554800685349EB
:1025E00008605348076053480068401C5149086020
:1025F000FFF706F800BF50480068854277D300BF58
:102600004A480068006808B9012000E0002020B1B5
:102610004FF0FF304849086068E044480068C068EF
:10262000C4686668B54202D2434806605EE06069ED
:10263000D4E902128A60D4E902214A60211D42686D
:102640008A4201D1E1684160002262610168491E4D
:102650000160A06A98B1A06AD4E907128A60D4E93F
:1026600007214A6004F1180142688A4201D1216AB7
:1026700041600022A2620168491E016000BF94F817
:102680002C10012088402D49096808432B49086017
:10269000E16A01EB81012A4A02EB8101486800E00E
:1026A00037E0A0608268E260211D8268516081602D
:1026B000E16A01EB8101224A02EB81026261E16A77
:1026C00001EB81011E4A52F82110491CE26A02EB1B
:1026D00082021B4B43F822101A49E06A0968C96A52
:1026E00088428DD34FF001088AE700E000BF15480B
:1026F0000068C06A00EB8000114951F820000128F1
:1027000001D94FF001081048006808B14FF00108E6
:1027100004E00E480068401C0C4908604046BDE8D3
:10272000F0810000A8000020800000207000002040
:1027300074000020940000209C00002084000020F1
:102740007C8400206C000020900000208C00002081
:1027500070B50346D868C16851B900BF502080F3F6
:102760001188BFF34F8FBFF36F8F00BF00BFFEE72D
:10277000886AD1E90745A560D1E90754656001F190
:1027800018044568A54201D10C6A446000258D6299
:102790000468641E04603048006800283DD1486920
:1027A000D1E90245A560D1E9025465600C1D456878
:1027B000A54201D1CC68446000254D610468641EC7
:1027C000046091F82C400120A040244C2468204350
:1027D000224C2060CC6A04EB8404214D05EB840478
:1027E000606888608568CD600C1D85686C60846059
:1027F000CC6A04EB84041A4D05EB84054D61CC6A68
:1028000004EB8404164D55F82440641CCD6A05EB96
:102810008505134E46F8254010E0124C6068C861EB
:1028200085680D6201F1180485686C6084600D4D47
:102830008D622C462468641C2C6000BF0A4CC86A58
:102840002468E46AA04204D901220120074C2060D8
:1028500000E00022104670BDA80000208400002087
:102860007C840020088500206C000020900000205F
:1028700070B5002400265348006850B900BF5020AE
:1028800080F31188BFF34F8FBFF36F8F00BF00BF7E
:10289000FEE7FFF7C7F84B480068401E494908604B
:1028A0000846006800287DD147480068002879D094
:1028B0005BE04648C068C468A06AD4E907128A6031
:1028C000D4E907214A6004F1180142688A4201D123
:1028D000216A41600022A2620168491E01606069AC
:1028E000D4E902128A60D4E902214A60211D4268BB
:1028F0008A4201D1E1684160002262610168491E9B
:10290000016094F82C10012088403149096808437F
:102910002F490860E16A01EB81012E4A02EB810137
:102920004868A0608268E260211D82685160816011
:10293000E16A01EB8101274A02EB81026261E16AEF
:1029400001EB8101234A52F82110491CE26A02EB93
:102950008202204B43F822101F49E06A0968C96AC5
:10296000884202D301201D4908601848006808B950
:10297000012000E0002000289BD00CB1FEF740FEB3
:102980001748056865B100BFFFF704FE10B10120CC
:10299000124908606D1E002DF6D100201049086014
:1029A0000E4800E009E0006838B1012630070D4903
:1029B0000860BFF34F8FBFF36F8FFFF75DF83046AE
:1029C00070BD0000A80000207C00002008850020C9
:1029D000840000207C8400206C00002090000020F7
:1029E0008C00002004ED00E010B586B00024FEF756
:1029F0001DFB16480068D0B100200590049003AA82
:102A000004A905A8FEF7CCFF0222DDE9041000238B
:102A1000CDE9002102900EA10F48039AFFF746FD71
:102A20000E4908600846006800B1012400BF54B98F
:102A300000BF502080F31188BFF34F8FBFF36F8F1B
:102A400000BF00BFFEE7204606B010BDB400002066
:102A5000546D722053766300E1160008B800002020
:102A60004FF04070E1EE100A704700008C2A000819
:102A700000000020EC000000C4010008782B0008D2
:102A8000EC000020AC8B0000E00100087374617260
:102A9000745F7461736B00000000000000000000B0
:102AA0007461736B315F7461736B00000000000030
:102AB000000000007461736B325F7461736B00001F
:102AC0000000000000000000007A030A000000007F
:102AD00000000000010203040607080900000000CE
:102AE00000000000000000000000010203040102D9
:102AF00003040607080900000000000000000000B1
:102B000000000000000000000000000000000000C5
:102B100000000000000000000000000000000000B5
:102B200000000000000000000000000000000000A5
:102B30000400000000000000000000000000000091
:102B4000000000000000000000000000AAAAAAAADD
:102B50000000000000000000000000000000000075
:102B60000000000000000000000000000000000065
:082B700000000000000000005D
:040000050800018965
:00000001FF
