:020000040800F2
:1000000038350120F10200086108000819080008CD
:100010005D08000839070008C30D00080000000053
:100020000000000000000000000000003102000895
:100030003D070008000000008D0200082D0B00089D
:100040000B0300080B0300080B0300080B03000858
:100050000B0300080B0300080B0300080B03000848
:100060000B0300080B0300080B0300080B03000838
:100070000B0300080B0300080B0300080B03000828
:100080000B0300080B0300080B0300080B03000818
:100090000B0300080B0300080B0300080B03000808
:1000A0000B0300080B0300080B0300080B030008F8
:1000B0000B0300080B0300080B0300080B030008E8
:1000C0000B0300080B0300080B0300080B030008D8
:1000D0000B030008A50B00080B0300080B03000826
:1000E0000B0300080B0300080B0300080B030008B8
:1000F0000B0300080B0300080B0300080B030008A8
:100100000B0300080B0300080B0300080B03000897
:100110000B0300080B0300080B0300080B03000887
:100120000B0300080B0300080B0300080B03000877
:100130000B0300080B0300080B0300080B03000867
:100140000B0300080B0300080B0300080B03000857
:100150000B0300080B0300080B0300080B03000847
:100160000B0300080B0300080B0300080B03000837
:100170000B0300080B0300080B0300080B03000827
:100180000B0300080B03000800F002F800F041F830
:100190000AA090E8000C82448344AAF10107DA45E2
:1001A00001D100F036F8AFF2090EBAE80F0013F0F3
:1001B000010F18BFFB1A43F0010318471429000070
:1001C00034290000103A24BF78C878C1FAD8520701
:1001D00024BF30C830C144BF04680C6070470000C1
:1001E0000023002400250026103A28BF78C1FBD840
:1001F000520728BF30C148BF0B607047642900F028
:10020000D980002070471FB502F05CFC1FBD10B5FF
:1002100010BD00F05FFA1146FFF7F5FF00F006FE93
:1002200000F07DFA03B4FFF7F2FF03BC00F0CBFD52
:100230002C4B19680868B0E8F04F80F30988BFF3C9
:100240006F8F4FF0000080F31188704700000000AE
:1002500008480068006880F308884FF0000080F3C9
:10026000148862B661B6BFF34F8FBFF36F8F00DFA4
:1002700000BF00BF08ED00E0DFF80C00016841F4AA
:1002800070010160704700BF88ED00E0EFF3098066
:10029000BFF36F8F134B1A681EF0100F08BF20EDCD
:1002A000108A20E9F04F106009B44FF0500080F33D
:1002B0001188BFF34F8FBFF36F8F01F0B5FE4FF082
:1002C000000080F3118809BC19680868B0E8F04F95
:1002D0001EF0100F08BFB0EC108A80F30988BFF33E
:1002E0006F8F704760000020EFF3058070470000BB
:1002F0000948804709480047FEE7FEE7FEE7FEE7BA
:10030000FEE7FEE7FEE7FEE7FEE7FEE704480549F5
:10031000054A064B704700003D0B000889010008A4
:10032000382F0120383501203831012038310120A3
:10033000704700000FB4044910B503AA029800F0FA
:1003400047F910BC5DF814FB480000202DE9F0418E
:100350000E460446002020622046E168884730B3FC
:10036000252805D0D4E901219047206A401CF2E7F6
:10037000E168204600278847050018D0A5F1410014
:10038000192802D820354FF4006732462946204606
:100390002760FFF733FF40B1012804D0F61D26F097
:1003A00007060836D8E7361DD6E72846DAE7206A7A
:1003B000BDE8F0812DE9F04106460024106875295A
:1003C000314616A510D0AFF30080002802DA404273
:1003D00013A507E031688A0701D512A502E0490795
:1003E00004D511A5012401E0AFF3008000210A2209
:1003F00006F1240709E0B0FBF2FCB0FBF2F302FBCC
:100400001C00303078541846491C0028F3D123468C
:100410002A463046BDE8F04100F080B800000000F8
:100420002D0000002B00000020000000032A40F2F5
:10043000308010F0030C00F0158011F8013BBCF186
:10044000020F624498BF11F801CB00F8013B38BF9E
:1004500011F8013BA2F1040298BF00F801CB38BFAC
:1004600000F8013B11F0030300F0C480083AC0F02B
:10047000088051F8043B083A51F804CBA0E8081072
:10048000F5E7121D5CBF51F8043B40F8043BAFF3A5
:100490000080D20724BF11F8013B11F801CB48BFFF
:1004A00011F8012B24BF00F8013B00F801CB48BF35
:1004B00000F8012B704702F0FF0343EA032242EAEF
:1004C000024200F0CBB84FF0000200B5134694464C
:1004D0009646203922BFA0E80C50A0E80C50B1F19C
:1004E0002001BFF4F7AF090728BFA0E80C5048BFB0
:1004F0000CC05DF804EB890028BF40F8042B08BF4E
:10050000704748BF20F8022B11F0804F18BF00F849
:10051000012B704770477047704770472DE9F047CF
:100520000D4699469246044600F124080168880663
:1005300004D5E06921F01001216000E00120A8420B
:1005400001DD471B00E00027A1697A1902EB0900D1
:10055000081AA0612078C00602D42046AFF30080BC
:10056000002608E0D4E901211AF806009047206A25
:10057000401C761C20624E45F4DB2078C0060AD56C
:100580002046AFF3008006E0D4E9012130209047F7
:10059000206A401C2062381EA7F10107F4DC07E046
:1005A000D4E9012118F805009047206A401C206218
:1005B000281EA5F10105F3DC2046AFF3008020786A
:1005C000000602D50220BDE8F0870120FBE700000D
:1005D000074B70B50D467B4400F065F8044628468D
:1005E00000F074F810B14FF0FF3070BD204670BDC0
:1005F0003708000010B5203AC0F00B80B1E8185061
:10060000203AA0E81850B1E81850A0E81850BFF4FC
:10061000F5AF5FEA027C24BFB1E81850A0E818509B
:1006200044BF18C918C0BDE810405FEA827C24BFEF
:1006300051F8043B40F8043B08BF7047D20728BF7D
:1006400031F8023B48BF11F8012B28BF20F8023BCC
:1006500048BF00F8012B70474FF000020429C0F09A
:10066000128010F0030C3FF430AFCCF1040CBCF15D
:10067000020F18BF00F8012BA8BF20F8022BA1EB36
:100680000C01FFF722BF5FEAC17C24BF00F8012BF9
:1006900000F8012B48BF00F8012B704701694A1C84
:1006A00002610878704700B58FB0CDE901310021B3
:1006B000059105497944CDE9031011466846FFF7D5
:1006C00045FE0FB000BD0000E5FFFFFF007B00F01E
:1006D00080007047754600F02BF8AE46050069466D
:1006E000534620F00700854618B020B5FFF70EFEF0
:1006F000BDE820404FF000064FF000074FF0000823
:100700004FF0000B21F00701AC46ACE8C009ACE8A3
:10071000C009ACE8C009ACE8C0098D46704710B507
:100720000446AFF300802046BDE81040FFF77ABDD5
:1007300000487047D82E012000BFFEE77047F0B593
:100740000A4600210023002400BF3DE0012505FAF0
:1007500001F3156805EA03049C4234D105684F0093
:100760000326BE40B543056015794E00B5400668C6
:10077000354305601579012D02D01579022D16D16A
:1007800085684F000326BE40B543856055794E000D
:10079000B540866835438560456801268E40B5437F
:1007A0004560456896798E40B6B235434560C56868
:1007B0004F000326BE40B543C560D5794E00B54015
:1007C000C6683543C560491C1029BFD3F0BDF0B5DC
:1007D000002300244D07ED0E02FA05F3CE1000F1C0
:1007E000200555F826504E07F70E0F26BE40B5439C
:1007F000CF1000F1200646F82750CE1000F120055A
:1008000055F8265045EA0304CE1000F1200545F8BE
:100810002640F0BD0183704700BFFEE71CB50121F3
:10082000202000F065F84FF4C060009001208DF8A2
:10083000040000208DF8060003208DF8050001203B
:100840008DF8070069460448FFF779FF4FF4C0614F
:100850000148FFF7DFFF1CBD0014024000BFFEE7A8
:100860007047000070B5002100230F22C4781CB32C
:10087000174C246804F4E064C4F5E064C4F3072171
:10088000C1F10404E3B20A4144789C40E1B28478A7
:10089000144021430C07210E0E4C05786155047855
:1008A00004F01F050124AC4005786D11AD0005F181
:1008B000E025C5F8004109E0047804F01F05012493
:1008C000AC40054D0678761145F8264070BD000015
:1008D0000CED00E000E400E080E100E002490143AB
:1008E000024A1160704700000000FA050CED00E0BC
:1008F00029B1064A12680243044B1A6004E0034A15
:1009000012688243014B1A60704700003038024081
:1009100029B1064A12680243044B1A6004E0034AF4
:1009200012688243014B1A6070470000443802404D
:10093000F0B5002100220024022500260223324FB8
:100940003F6807F00C0121B1042905D0082937D1EF
:1009500005E02E4F076036E02D4F076033E02A4F49
:100960003F1F3F68C7F38056274F3F1F3F6807F080
:100970003F036EB1264FB7FBF3F7DFF88CC0ACF145
:10098000040CDCF800C0CCF3881C07FB0CF40CE072
:100990001E4FB7FBF3F7DFF870C0ACF1040CDCF8C6
:1009A00000C0CCF3881C07FB0CF4174F3F1F3F68B7
:1009B000C7F301477F1C7D00B4FBF5F7076002E039
:1009C000124F076000BF00BF0F4F3F6807F0F001F4
:1009D0000909104F7A5C0768D74047600A4F3F68A3
:1009E00007F4E051890A0B4F7A5C4768D74087606B
:1009F000054F3F6807F46041490B064F7A5C476832
:100A0000D740C760F0BD0000083802400024F40061
:100A100000127A004E0000200CB5002001900090DA
:100A20003448006840F480303249086000BF3148E3
:100A3000006800F4003000900198401C019000987C
:100A400018B90198B0F5A04FF1D12A48006800F418
:100A5000003010B10120009001E0002000900098CB
:100A6000012846D123484030006840F08050214999
:100A7000403108602048006840F440401E4908604A
:100A80001C48083000681B490831086008460068A7
:100A900040F4004008600846006840F4A050086038
:100AA0001648091F0860081F006840F08070091F81
:100AB000086000BF0F48006800F000700028F9D0FF
:100AC00040F205700E4908600A480830006820F0BE
:100AD00003000849083108600846006840F0020039
:100AE000086000BF03480830006800F00C000828C8
:100AF000F8D10CBD00380240007000400854400797
:100B0000003C0240042808D14FF0E021096941F07F
:100B100004014FF0E022116107E04FF0E021096984
:100B200021F004014FF0E0221161704710B501F08F
:100B30005DFD012801D001F071FB10BD10B5154815
:100B4000006840F47000134908601348006840F0E2
:100B500001001149086000200F49083108600E4863
:100B600000680E4908400C4908600D48091D0860DE
:100B7000081F006820F48020091F08600020064933
:100B80000C310860FFF748FF4FF0006001498039E1
:100B9000086010BD88ED00E000380240FFFFF6FE5F
:100BA0001030002410B540F225511D4800F04AF8DD
:100BB00010B31B4800F000F9C4B21A48008800F4D2
:100BC0000040C8B91748008800F4804060B10A2C82
:100BD00003D000201349088020E01248008840F428
:100BE00000401049088019E00D2C06D10D480088FE
:100BF00040F480400B49088010E00A480088C0F3A8
:100C00000D0009490C5407480088401C054908801C
:100C100008460088C72801DD0020088010BD0000BC
:100C2000001001404C000020E000002021B182892A
:100C300042F40052828104E082894DF6FF731A402B
:100C40008281704770B502460024002300250020F1
:100C500040F66A16B14200D100BFC1F3421501F05F
:100C60001F03012606FA03F3012D02D196893340B2
:100C700006E0022D02D1168A334001E0968A334005
:100C80000C12012606FA04F41688344013B10CB194
:100C9000012000E0002070BDF0B5034600240026CE
:100CA0000025002040F66A17B94200D100BF18465F
:100CB000C1F3421401F01F06012707FA06F5012CC3
:100CC00001D10C3004E0022C01D1103000E01430CE
:100CD0001AB107682F43076002E00768AF43076057
:100CE000F0BD00002DE9FF4705460E460024A14651
:100CF00000BFA046B08900B100BF2C8A24F4405444
:100D0000F08804432C82AC8941F20C608443B088A3
:100D100031890843718908430443AC81AC8A24F4C7
:100D20004074B0890443AC826846FFF701FE204856
:100D3000854202D01F48854202D1DDF80C9001E0C7
:100D4000DDF80890A88900F4004040B109EBC90023
:100D500000EB091031684900B0FBF1F707E009EB3F
:100D6000C90000EB091031688900B0FBF1F764207D
:100D7000B7FBF0F004012009642101FB1078A88979
:100D800000F4004040B1322000EBC800B0FBF1F0AD
:100D900000F00700044308E0322000EB0810642153
:100DA000B0FBF1F000F00F0004432C81BDE8FF8799
:100DB000001001400014014001468888C0F308007B
:100DC000704700BFFEE7014600BF704770B504469C
:100DD0000420FFF797FE0C48047025464FF47A7004
:100DE00045430120094908804FF0E020006940F0A8
:100DF00002004FF0E021086108464561006940F0BB
:100E00000100086170BD0000440000204600002081
:100E100000BF054A128802F04002002AF9D0C2B28F
:100E2000014B9A8070470000001001401CB54FF440
:100E30004070FFF753FDA820FFF7C8FF4FF4E130E3
:100E400000F0ECFDFFF7EAFC0648012100237822C0
:100E5000CDE900100449054801F098FB01F08EF837
:100E600000201CBD0C000020000000202D190008EF
:100E70002DE9F04105460E462648076826480068D9
:100E8000001D00F021FE50B92348006890F82C1096
:100E90000120884021490968814320480160681C7D
:100EA000D8B9D6B11E4948681B49096888601A49F3
:100EB00082680968CA6018490968091D826851601A
:100EC00015490968091D8160154A134909684A6175
:100ED00011460968491C11601AE07C190E48006827
:100EE0004460BC4207D20C480168091D0D480068E7
:100EF00000F00EFE0CE008480168091D0A48006871
:100F000000F006FE09480068844201D207480460E8
:100F1000BDE8F0817400002060000020780000200F
:100F20009C02002068000020640000209000002047
:100F300010B5044600F012FE31480068401C3049EC
:100F400008603048006840B92E48046008460068D0
:100F500001280DD100F0C2F90AE02B48006838B929
:100F600028480068C06AE16A884201D825480460C0
:100F700026480068401C254908600846006820642F
:100F800094F82C1001208840214909680843204921
:100F90000860E16A01EB81011E4A02EB81014868A9
:100FA000A0608268E260211D826851608160E16A10
:100FB00001EB8101174A02EB81026261E16A01EBF8
:100FC0008101144A52F82110491CE26A02EB8202A4
:100FD000104B43F8221000F0EBFD0B48006868B19D
:100FE00008480068C06AE16A884207D24FF0805022
:100FF00009490860BFF34F8FBFF36F8F10BD00002A
:1010000070000020600000207C0000208C00002088
:1010100078000020E801002004ED00E010B500F0A9
:101020009DFD10480068D0B90F4800F061FD0F48E1
:1010300000F05EFD0C480E4908600C480D49086040
:1010400000220C210A2001F003F906490860084635
:10105000006820B108A10348006800F02DFE00F0F0
:10106000A7FD10BDA8000020B0020020C40200208F
:10107000A0000020A4000020546D72510000000068
:1010800010B516E000F06AFD0C48C068C468201D69
:1010900000F01AFD0A480068401E09490860094826
:1010A0000068401E0749086000F082FD204600F0FD
:1010B00020F8044800680028E4D110BD8802002010
:1010C000700000206C00002070B504460D46206CB6
:1010D00070B1216CE0680144E160D4E902108842FB
:1010E00001D32168E1602846226CE168FFF79EF990
:1010F00070BD10B50446206B00F078FD204600F06E
:1011000075FD10BD0146084A126812680AB901222D
:1011100000E000220A600A6822B9034A1268D26815
:10112000106800E000207047A000002030B54FF4A8
:101130009633174800F007042CB1C01D20F00700BB
:10114000134C041B1B1B0246124C22600024114D41
:101150006C60D018083820F007000F4C2060002485
:101160000D4D2D686C600C4D2D682C601146441A95
:101170004C60094C24680C60084D4C682C60084D8C
:101180004C682C604FF00044064D2C6030BD0000D0
:10119000D8020020C0000020C8000020D00000209D
:1011A000CC000020DC00002000BFFFF769FF0648EC
:1011B00000680128F9D94FF0805004490860BFF356
:1011C0004F8FBFF36F8FF0E7E801002004ED00E0E0
:1011D0002DE9F04106460D4617469846069C0DB986
:1011E000246000E02760E66325640121204601F0C9
:1011F00063F884F84C80BDE8F0812DE9F05F824609
:101200000F4690469B460A9E0C9C4FEA8801A522F9
:10121000206BFFF750F9A8F10100216B01EB800969
:1012200029F0070909F0070008B9012000E00020B3
:1012300050B900BF502080F31188BFF34F8FBFF328
:101240006F8F00BF00BFFEE787B1002507E0795D23
:1012500004F134004155785D00B902E06D1C0A2D9F
:10126000F5D300BF00213D20015502E0002084F8A5
:101270003400052E01D2012000E0002050B900BF4B
:10128000502080F31188BFF34F8FBFF36F8F00BFE3
:1012900000BFFEE7052E00D30426E662A664002008
:1012A000E064201D00F031FC04F1180000F02DFC7A
:1012B0002461C6F10500A06164620020206584F805
:1012C00054005A465146484600F01AFB20600B98DD
:1012D00008B10B980460BDE8F09F000010B5002431
:1012E00007E004EB84010F4A02EB810000F000FCF0
:1012F000641C052CF5D30C4800F0FAFB0B4800F0F9
:10130000F7FB0B4800F0F4FB0A4800F0F1FB0A4839
:1013100000F0EEFB044809490860044808490860E9
:1013200010BD0000E80100204C02002060020020F7
:1013300074020020880200209C020020640000202B
:101340006800002010B50146164800E000680368F8
:101350008B42FBD30246436813448B4204D143685B
:101360004C682344436001460A464B6813440468B2
:10137000A34211D10C4C03682468A34208D04B68E7
:101380000468646823444B6003681B680B6005E0D5
:10139000054B1B680B6001E003680B60884200D0BE
:1013A000016010BDC0000020C80000202DE9F04100
:1013B00004460D4616461F464FF00008656024613E
:1013C000B5420CD8F01BA169884202D34FF0010846
:1013D00011E0211D0948006800F09AFB0BE0BE42B5
:1013E00004D2BD4202D34FF0010804E0211D04489D
:1013F000006800F08DFB4046BDE8F081A4000020AD
:10140000A000002070B5054600F0A8FBA86B08B945
:10141000012400E0002400F0CBFB204670BD00005A
:1014200070B505460E460E480068C068C468201DA9
:1014300000F04AFB94F8280000F0040028B132467E
:101440002946204600F0D6F805E094F8280000F080
:10145000FE0084F828002046216A884770BD0000FD
:10146000A00000207FB57FE0019800287CDB039C72
:10147000606908B9012000E0002010B9201D00F0CB
:1014800023FB684600F0E2F8054601980A2869D275
:10149000DFE800F06805072E365806082F3700BF32
:1014A00000BF00BF94F8280040F0010084F8280035
:1014B0000298A269811803462A462046FFF776FF64
:1014C000A8B194F8280000F0040038B10298A2698D
:1014D00081182A46204600F08DF805E094F828008F
:1014E00000F0FE0084F828002046216A88473AE090
:1014F00000BF94F8280000F0FE0084F8280032E0D5
:1015000000BF94F8280040F0010084F828000298F9
:10151000A061A06908B1012000E0002050B900BF1F
:10152000502080F31188BFF34F8FBFF36F8F00BF40
:1015300000BFFEE7A06941192B462A462046FFF767
:1015400035FF10E094F8280000F0020018B920469A
:1015500000F04CFB05E094F8280000F0FE0084F851
:10156000280000E000BF00BF002201A90348006876
:1015700000F010FF00287FF477AF7FBDA8000020A7
:10158000F8B505460C4600F047FD684600F05EF8E9
:101590000646009820BB44B9B54206D801F0AAF926
:1015A00031462846FFF73CFF1CE03CB10E4800687E
:1015B000006808B9012000E000200446A91B22466B
:1015C0000A48006800F0A8FB01F094F950B94FF008
:1015D000805007490860BFF34F8FBFF36F8F01E062
:1015E00001F088F9F8BD0000A4000020A800002048
:1015F00004ED00E070B504460D46164604E0A0690F
:1016000005442046216A8847A06941192B46324685
:101610002046FFF7CBFE0028F1D170BD09480068D5
:10162000006808B9012000E0002020B14FF0FF3031
:101630000549086005E003480068C0680068024981
:1016400008607047640000209000002070B50446D8
:1016500000F0DCFF054607480068854204D200F030
:101660000BF80120206001E00020206001480560A7
:10167000284670BDB000002070B508E00D48006835
:10168000C06804684FF0FF312046FFF7C9FE0948E3
:101690000068006808B9012000E000200028EDD0B3
:1016A000044805680448006802490860024805606B
:1016B00070BD0000A0000020A40000200E480068BB
:1016C000401C08B9012000E0002050B900BF5020A4
:1016D00080F31188BFF34F8FBFF36F8F00BF00BF40
:1016E000FEE700BF502080F31188BFF34F8FBFF398
:1016F0006F8F00BF00BFFEE7B400002008B500BF39
:101700006846FFF7FFFC044620460099FFF738FFC4
:10171000FFF7A8FEF4E770B5044600F01FFA94F94D
:10172000455010E0606A08B9012000E0002038B997
:1017300004F1240001F04EF818B100F0CBFB00E0FA
:1017400003E0681E45B2002DECDC00BFFF2084F8EA
:10175000450000F02DFA00F001FA94F9445010E031
:10176000206908B9012000E0002048B904F1100008
:1017700001F030F808B100F0ADFB681E45B200E0A2
:1017800001E0002DECDC00BFFF2084F8440000F0F5
:101790000FFA70BD2DE9F04104464FF0000800F04B
:1017A0003BFC5148006808B9FFF7C0FC4F4800688F
:1017B000204000287ED13CB304F10800A04223D988
:1017C000083404F0070000B304F00700C0F108007B
:1017D0002044A04216D904F00700C0F108000444D8
:1017E00004F0070008B9012000E0002068B900BF3C
:1017F000502080F31188BFF34F8FBFF36F8F00BF6E
:1018000000BFFEE7002400E00024002C54D038483C
:101810000068844250D8374E3046056801E02E46B5
:101820002D686868A04202D228680028F7D12E48A7
:101830000068854240D0306800F1080828683060B0
:101840006868001B102819D92F1907F0070008B97C
:10185000012000E0002050B900BF502080F3118823
:10186000BFF34F8FBFF36F8F00BF00BFFEE7686805
:10187000001B78606C603846FFF764FD1C4968689F
:101880000968081A1A490860084600681A49096870
:10189000884203D2164800681749086013496868EF
:1018A0000968084368600020286014480068401CEC
:1018B000124900E000E0086001F01CF808F00700A1
:1018C00008B9012000E0002050B900BF502080F38B
:1018D0001188BFF34F8FBFF36F8F00BF00BFFEE7CC
:1018E0004046BDE8F0810000C8000020DC00002078
:1018F000CC000020C0000020D0000020D400002038
:10190000001F4FF080730360001F21F0010303608C
:10191000001F054B036014380260001F6FF00203C4
:101920000360203870470000BD1600081CB504464F
:101930000C48022100237822CDE900100A490B4807
:1019400000F024FE0A48032100237822CDE900108C
:101950000849094800F01AFE0848006800F030FA0B
:101960001CBD00001C000020100000208119000890
:101970002C00002020000020D51900080C000020B9
:10198000002400BF641C21460BA0FEF7D3FC052CED
:1019900006D10D48006818B10B48006800F010FA35
:1019A0000A480068C0430A49C1F8A4024FF4FA701B
:1019B00000F0D8F9E6E700007461736B315F6E7573
:1019C0006D203D25640A00002C000020A4824242C4
:1019D00000804242002400BF641C214609A0FEF79B
:1019E000A9FC01200B4908604FF4FA7000F0BAF925
:1019F00000200949C1F8A8024FF4FA6000F0B2F9DA
:101A0000EAE700007461736B325F6E756D203D25EF
:101A1000640A0000A88242420080424210B588B0A9
:101A2000044601210846FEF763FF01211020FEF75E
:101A30006FFF072209212248FEF7C9FE07220A216B
:101A40001F48FEF7C4FE4FF4C060069002208DF8D8
:101A50001C008DF81D0000208DF81E0001208DF85F
:101A60001F0006A91648FEF76AFE02940020ADF892
:101A70000C00ADF80E00ADF81000ADF814000C200D
:101A8000ADF8120002A90F48FFF72CF901210D480B
:101A9000FFF7CCF8012240F225510A48FFF7FCF885
:101AA00025208DF8040003208DF805008DF8060030
:101AB00001208DF8070001A8FEF7D4FE08B010BD84
:101AC000000002400010014001460A69D1E90130DE
:101AD0009860D1E9010358605068884201D1886854
:101AE0005060002008611068401E10601068704748
:101AF00000F1080141604FF0FF31816000F1080101
:101B0000C1600161002101607047002101617047DF
:101B100010B502460B685C1C0CB9106907E002F1B5
:101B2000080000E04068446824689C42FAD9446890
:101B30004C604C68A160886041600A611468641C54
:101B4000146010BD42684A6093688B609368596066
:101B50009160086103685B1C0360704700BF502000
:101B600080F31188BFF34F8FBFF36F8F00BF0E4814
:101B70000068401C0C49086008460068012812D122
:101B80000A480068C0B208B9012000E0002050B93E
:101B900000BF502080F31188BFF34F8FBFF36F8FCA
:101BA00000BF00BFFEE77047B400002004ED00E076
:101BB0000D48006850B900BF502080F31188BFF372
:101BC0004F8FBFF36F8F00BF00BFFEE7064800686E
:101BD000401E054908600846006820B9002080F3CF
:101BE000118800BF00BF7047B400002070B50646E2
:101BF0003546002E44D0083D2C46224960680968CD
:101C0000084008B1012000E0002050B900BF50207A
:101C100080F31188BFF34F8FBFF36F8F00BF00BFFA
:101C2000FEE7206808B9012000E0002050B900BF9D
:101C3000502080F31188BFF34F8FBFF36F8F00BF29
:101C400000BFFEE70F49606809680840C0B120681E
:101C5000B0B90C49606809688843606000F0DCF93D
:101C60000949606809680844074908602046FFF789
:101C700069FB06480068401C0449086000F03AFE11
:101C800070BD0000DC000020CC000020D800002047
:101C900000204FF0E02108618861064800684FF499
:101CA0007A71B0FBF1F0401E4FF0E021486107204F
:101CB000086170473000002030B502460B46002115
:101CC00052B900BF502484F31188BFF34F8FBFF384
:101CD0006F8F00BF00BFFEE7BBB1002012E00D4CCC
:101CE00004EBC0046468944203D10A4C04EBC001C5
:101CF0000AE031B9074C54F8304014B9054C04EBF4
:101D0000C001401C0828EAD300BF09B10B604A603B
:101D100030BD0000A80100202DE9F04105460E4627
:101D200017462C46FFF71AFF94F94400401C10B9DF
:101D3000002084F8440094F94500401C10B90020AC
:101D400084F84500FFF734FFA06B28B93A463146C6
:101D500004F1240000F0E0F82046FFF7DCFCBDE8C9
:101D6000F081000070B504460025D4B11248006827
:101D700008B9012000E0002050B900BF502080F3D6
:101D80001188BFF34F8FBFF36F8F00BF00BFFEE717
:101D900000F042F900212046FFF76AF800F0AAFDA2
:101DA00005463DB94FF0805004490860BFF34F8F9E
:101DB000BFF36F8F70BD00009C00002004ED00E0B9
:101DC00070B50546FFF7CAFE15B93248006800E055
:101DD00028460446201DFFF777FE78B9E06A00EB3D
:101DE00080002D4951F8200040B994F82C100120B2
:101DF00088402A490968814328480160A06A18B1CF
:101E000004F11800FFF760FE25480068401C2449D3
:101E1000086020480068844209D1211D2148FFF74D
:101E200091FE21480068401C1F49086006E01F48D9
:101E30000068401E1D490860FFF7F0FBFFF7B8FE81
:101E400014480068844202D02046FFF752F918482F
:101E50000068E8B10F480068844219D1154800684D
:101E600008B9012000E0002050B900BF502080F3E5
:101E70001188BFF34F8FBFF36F8F00BF00BFFEE726
:101E80004FF080500C490860BFF34F8FBFF36F8F46
:101E900070BD000060000020E801002078000020F4
:101EA0008C000020880200206C00002070000020C0
:101EB0007C0000209C00002004ED00E0034909683C
:101EC00001600349096841607047000088000020F4
:101ED0007400002001200149086070478400002040
:101EE00070B504460D4654B900BF502080F31188E8
:101EF000BFF34F8FBFF36F8F00BF00BFFEE70548F2
:101F0000016818312046FFF703FE01212846FEF73D
:101F1000AFFF70BD6000002070B504460E46154648
:101F200054B900BF502080F31188BFF34F8FBFF327
:101F30006F8F00BF00BFFEE760680F490968C86186
:101F40000D49826809680A620B490968183182687C
:101F500051600949096818318160074909688C6234
:101F60002168491C21600DB14FF0FF3629463046EB
:101F7000FEF77EFF70BD0000600000201CB51E480B
:101F800000210B468222CDE900101CA11D4800F063
:101F9000FDFA0446012C02D100F068FD0446012C34
:101FA00015D100BF502080F31188BFF34F8FBFF3CE
:101FB0006F8F00BF4FF0FF301349086001201349B5
:101FC000086000201249086000F074F810E0601CFE
:101FD00008B1012000E0002050B900BF502080F37C
:101FE0001188BFF34F8FBFF36F8F00BF00BFFEE7B5
:101FF000084800681CBD00009400002049444C457E
:1020000000000000A9110008900000207C000020C2
:10201000740000209800002002480068401C01491C
:10202000086070479C0000201D48006818B101201E
:102030001C49086032E000201A4908601A4800680C
:10204000B0FA80F0C0F11F0101EB8100174A52F88D
:10205000200008B1012000E0002050B900BF50204E
:1020600080F31188BFF34F8FBFF36F8F00BF00BFA6
:10207000FEE701EB81020D4B03EB820042685268E0
:10208000426000F108024368934202D142685268FC
:1020900042604268D268064B1A6000BF7047000079
:1020A0009C0000208400002078000020E80100202F
:1020B000600000201CB5524800685249884201D097
:1020C000012000E0002050B900BF502080F31188AB
:1020D000BFF34F8FBFF36F8F00BF00BFFEE74848CD
:1020E00000684849491E884201D0012000E00020D4
:1020F00050B900BF502080F31188BFF34F8FBFF35A
:102100006F8F00BF00BFFEE73F490846007801908F
:10211000FF200A4610700846007800909DF80000E5
:1021200000F0F0009DF80020904201D1012000E075
:10213000002050B900BF502080F31188BFF34F8FAB
:10214000BFF36F8F00BF00BFFEE79DF8000000F0F7
:1021500050002E4A107007202D4A106009E02C48CC
:102160000068401E2A4A10609DF800004006000EDC
:1021700000909DF8000000F080008028EFD02448F7
:102180000068C0F10700042801D1012000E0002010
:1021900050B900BF502080F31188BFF34F8FBFF3B9
:1021A0006F8F00BF00BFFEE7194800680002184AA1
:1021B00010601046008800F4E0601060124A019838
:1021C00010700F482030006840F470000C49203136
:1021D00008600846006840F070400860FFF758FD4E
:1021E00000200C490860FEF747F80B48006840F0F3
:1021F000404009490860FEF72BF800201CBD000094
:1022000000ED00E071C20F4100E400E0B8000020E2
:10221000BC000020B400002034EF00E010B500BF87
:10222000502080F31188BFF34F8FBFF36F8F00BF33
:1022300000F0F2F918B14FF080500449086000BF77
:10224000002080F3118800BF10BD000004ED00E005
:102250002DE9F84305460E4617460024E5B1601EF9
:10226000B0FBF5F0B04217D305FB06F010F1510FAB
:1022700012D805FB06F808F15000FFF78BFA044668
:10228000B4B1A14609F150093B464A4631462846B9
:102290000094FEF79DFF0BE054B900BF502080F37F
:1022A0001188BFF34F8FBFF36F8F00BF00BFFEE7F2
:1022B0002046BDE8F88300002DE9F04105460E46B2
:1022C00001272C4654B900BF502080F31188BFF37A
:1022D0004F8FBFF36F8F00BF00BFFEE7002C42D0CF
:1022E000E06B00283FD04FF0FF31E06BB1FBF0F026
:1022F000216C884237D3FFF731FCD4E90F122068F4
:1023000001FB0200A0600020A06320686060E06B19
:10231000401E226C216800FB0211E160FF2084F85E
:10232000440084F845009EB9206908B9012000E006
:102330000020A8B904F1100000F04CFA80B14FF071
:10234000805013490860BFF34F8FBFF36F8F07E0D2
:1023500004F11000FFF7CCFB04F12400FFF7C8FBE9
:10236000FFF726FC00E000270FB1012000E000206D
:1023700050B900BF502080F31188BFF34F8FBFF3D7
:102380006F8F00BF00BFFEE73846BDE8F081000058
:1023900004ED00E02DE9F74183B005460E464FF00D
:1023A00000082C4654B900BF502080F31188BFF3B9
:1023B0004F8FBFF36F8F00BF00BFFEE70EB9206CD9
:1023C00008B9012000E0002050B900BF502080F380
:1023D0001188BFF34F8FBFF36F8F00BF00BFFEE7C1
:1023E00000F004F908B9059808B9012000E00020C0
:1023F00050B900BF502080F31188BFF34F8FBFF357
:102400006F8F00BF00BFFEE700BFFFF7A7FBA76B02
:10241000F7B131462046FEF757FE781EA0632069CB
:1024200008B9012000E0002060B904F1100000F0BC
:10243000D1F938B14FF080502F490860BFF34F8F6A
:10244000BFF36F8FFFF7B4FB012006B0BDE8F0814A
:10245000059818B9FFF7ACFB0020F6E7B8F1000FBC
:1024600004D101A8FFF72AFD4FF00108FFF7A0FBF8
:10247000FFF7D2FDFFF772FB94F94400401C10B93E
:10248000002084F8440094F94500401C10B9002055
:1024900084F84500FFF78CFB05A901A800F02EF891
:1024A000F0B92046FEF7AEFFA0B104F12400059973
:1024B000FFF716FD2046FFF72EF900F01BFA002863
:1024C000A3D14FF080500C490860BFF34F8FBFF38A
:1024D0006F8F9AE72046FFF71EF900F00BFA94E79A
:1024E0002046FFF718F900F005FA2046FEF78AFFAC
:1024F00000288AD00020A8E704ED00E070B505466A
:102500000C4655B900BF502080F31188BFF34F8FA0
:10251000BFF36F8F00BF00BFFEE754B900BF50206C
:1025200080F31188BFF34F8FBFF36F8F00BF00BFE1
:10253000FEE7FFF713FB134802686868131A206868
:10254000401C08B9002619E00F492868096888422C
:1025500006D06868904203D80126002020600DE074
:102560002068984207D92068C01A20602846FFF7E3
:10257000A5FC002602E0002020600126FFF718FBE2
:10258000304670BD74000020880000202DE9FF4F08
:1025900085B0804689461746DDE912ABB800FFF7E3
:1025A000F9F8064656B15820FFF7F4F804460CB186
:1025B000266304E03046FFF719FB00E000247CB1FD
:1025C0000020CDE900ABCDE902403A4649464046FD
:1025D000089BFEF712FE2046FEF7AAFC012501E04B
:1025E0004FF0FF35284609B0BDE8F08F054909686E
:1025F00009B9012005E00449096809B9022000E091
:10260000002070477C0000209C00002001490868E1
:1026100070470000740000202DE9F0414FF00008E1
:102620006148006800287DD160480068451C5F480B
:10263000056015BB5E480068006808B9012000E02D
:10264000002050B900BF502080F31188BFF34F8F96
:10265000BFF36F8F00BF00BFFEE7554807685548BE
:102660000068534908605348076053480068401C9D
:1026700051490860FEF7D2FF00BF5048006885420C
:1026800077D300BF4A480068006808B9012000E01D
:10269000002020B14FF0FF304849086068E044480E
:1026A0000068C068C4686668B54202D243480660E4
:1026B0005EE06069D4E902128A60D4E902214A60CE
:1026C000211D42688A4201D1E168416000226261B5
:1026D0000168491E0160A06A98B1A06AD4E9071296
:1026E0008A60D4E907214A6004F1180142688A42ED
:1026F00001D1216A41600022A2620168491E016085
:1027000000BF94F82C10012088402D490968084327
:102710002B490860E16A01EB81012A4A02EB810141
:10272000486800E037E0A0608268E260211D8268AE
:1027300051608160E16A01EB8101224A02EB810272
:102740006261E16A01EB81011E4A52F82110491CC5
:10275000E26A02EB82021B4B43F822101A49E06A3C
:102760000968C96A88428DD34FF001088AE700E002
:1027700000BF15480068C06A00EB8000114951F89D
:102780002000012801D94FF001081048006808B165
:102790004FF0010804E00E480068401C0C49086036
:1027A0004046BDE8F08100009C000020740000203D
:1027B00064000020680000208800002090000020B5
:1027C00078000020E8010020600000208400002044
:1027D0008000002070B50346D868C16851B900BFB9
:1027E000502080F31188BFF34F8FBFF36F8F00BF6E
:1027F00000BFFEE7886AD1E90745A560D1E9075423
:10280000656001F118044568A54201D10C6A446075
:1028100000258D620468641E04603048006800284A
:102820003DD14869D1E90245A560D1E9025465600E
:102830000C1D4568A54201D1CC68446000254D615E
:102840000468641E046091F82C400120A040244CD0
:1028500024682043224C2060CC6A04EB8404214D80
:1028600005EB8404606888608568CD600C1D856810
:102870006C608460CC6A04EB84041A4D05EB84051B
:102880004D61CC6A04EB8404164D55F82440641C59
:10289000CD6A05EB8505134E46F8254010E0124C35
:1028A0006068C86185680D6201F1180485686C6014
:1028B00084600D4D8D622C462468641C2C6000BF22
:1028C0000A4CC86A2468E46AA04204D901220120A3
:1028D000074C206000E00022104670BD9C000020E4
:1028E00078000020E8010020740200206000002031
:1028F0008400002070B5002400265348006850B9B9
:1029000000BF502080F31188BFF34F8FBFF36F8F4C
:1029100000BF00BFFEE7FFF721F94B480068401EEB
:10292000494908600846006800287DD1474800688A
:10293000002879D05BE04648C068C468A06AD4E942
:1029400007128A60D4E907214A6004F1180142683D
:102950008A4201D1216A41600022A2620168491EB7
:1029600001606069D4E902128A60D4E902214A60F8
:10297000211D42688A4201D1E16841600022626102
:102980000168491E016094F82C10012088403149EB
:10299000096808432F490860E16A01EB81012E4A6A
:1029A00002EB81014868A0608268E260211D8268B4
:1029B00051608160E16A01EB8101274A02EB8102EB
:1029C0006261E16A01EB8101234A52F82110491C3E
:1029D000E26A02EB8202204B43F822101F49E06AB0
:1029E0000968C96A884202D301201D490860184855
:1029F000006808B9012000E0002000289BD00CB13D
:102A0000FEF70CFE1748056865B100BFFFF704FE2E
:102A100010B10120124908606D1E002DF6D1002072
:102A2000104908600E4800E009E0006838B101264E
:102A300030070D490860BFF34F8FBFF36F8FFFF76B
:102A4000B7F8304670BD00009C00002070000020E8
:102A50007402002078000020E801002060000020BF
:102A6000840000208000002004ED00E01CB500245C
:102A7000FEF7D4FA0E48006858B10E480221002330
:102A80004FF48272CDE900100BA10D48FFF77EFDD7
:102A9000044654B900BF502080F31188BFF34F8F14
:102AA000BFF36F8F00BF00BFFEE720461CBD0000D4
:102AB000A8000020AC000020546D72205376630003
:102AC000FD1600084FF04070E1EE100A704700005C
:102AD000F02A000800000020E0000000C401000807
:102AE000D02B0008E000002058340100E00100086D
:102AF00073746172745F7461736B00000000000096
:102B00007461736B315F7461736B000000000000CF
:102B10007461736B325F7461736B000000000000BE
:102B2000007A030A00000000000000000102030414
:102B30000607080900000000000000000000000077
:102B40000000010203040102030406070809000053
:102B50000000000000000000000000000000000075
:102B60000000000000000000000000000000000065
:102B70000000000000000000000000000000000055
:102B80000000000000000000040000000000000041
:102B90000000000000000000000000000000000035
:102BA00000000000AAAAAAAA00000000000000007D
:102BB0000000000000000000000000000000000015
:102BC0000000000000000000000000000000000005
:040000050800018965
:00000001FF
